:020000040000FA
:0600000082EF00F0120087
:020006000000F8
:08000800060EF66E000EF76E05
:10001000000EF86E00010900F550656F0900F550FB
:10002000666F03E1656701D03DD00900F550606F50
:100030000900F550616F0900F550626F0900090071
:10004000F550E96E0900F550EA6E09000900090053
:10005000F550636F0900F550646F09000900F6CF91
:1000600067F0F7CF68F0F8CF69F060C0F6FF61C0C5
:10007000F7FF62C0F8FF0001635302E1645307E039
:100080000900F550EE6E6307F8E26407F9D767C020
:10009000F6FF68C0F7FF69C0F8FF00016507000EB2
:0600A000665BBFD71200F1
:0A00A600010ED56ED76AD66AF294F7
:1000B000070EB46E010E836E956A280EE66ECF0EA3
:1000C000E66E12D8E552E552D58EF2A4FED78350E3
:1000D000E824836E280EE66ECF0EE66E05D8E55254
:1000E000E552F294F2D71200D9CFE6FFE1CFD9FF63
:1000F000FE0EDB50D76EFD0EDB50D66EE552E7CF1D
:04010000D9FF120011
:0C01040015EE00F025EE00F0F86A019CFA
:1001100004EC00F097EC00F053EC00F0FBD7120079
:0E01200000EE00F00F0EEE6AEA62FDD712004C
:02012E001200BD
:00000001FF
